{
  "contractName": "Auction",
  "abi": [
    {
      "inputs": [
        {
          "internalType": "uint256",
          "name": "_startTime",
          "type": "uint256"
        },
        {
          "internalType": "uint256",
          "name": "_endTime",
          "type": "uint256"
        }
      ],
      "payable": false,
      "stateMutability": "nonpayable",
      "type": "constructor"
    },
    {
      "anonymous": false,
      "inputs": [
        {
          "indexed": false,
          "internalType": "address",
          "name": "bidder",
          "type": "address"
        },
        {
          "indexed": false,
          "internalType": "uint256",
          "name": "amount",
          "type": "uint256"
        }
      ],
      "name": "HighestBidIncreased",
      "type": "event"
    },
    {
      "constant": true,
      "inputs": [],
      "name": "endTime",
      "outputs": [
        {
          "internalType": "uint256",
          "name": "",
          "type": "uint256"
        }
      ],
      "payable": false,
      "stateMutability": "view",
      "type": "function"
    },
    {
      "constant": true,
      "inputs": [],
      "name": "highestBid",
      "outputs": [
        {
          "internalType": "uint256",
          "name": "",
          "type": "uint256"
        }
      ],
      "payable": false,
      "stateMutability": "view",
      "type": "function"
    },
    {
      "constant": true,
      "inputs": [],
      "name": "highestBidder",
      "outputs": [
        {
          "internalType": "address",
          "name": "",
          "type": "address"
        }
      ],
      "payable": false,
      "stateMutability": "view",
      "type": "function"
    },
    {
      "constant": true,
      "inputs": [],
      "name": "owner",
      "outputs": [
        {
          "internalType": "address payable",
          "name": "",
          "type": "address"
        }
      ],
      "payable": false,
      "stateMutability": "view",
      "type": "function"
    },
    {
      "constant": true,
      "inputs": [],
      "name": "startTime",
      "outputs": [
        {
          "internalType": "uint256",
          "name": "",
          "type": "uint256"
        }
      ],
      "payable": false,
      "stateMutability": "view",
      "type": "function"
    },
    {
      "constant": false,
      "inputs": [],
      "name": "bid",
      "outputs": [],
      "payable": true,
      "stateMutability": "payable",
      "type": "function"
    },
    {
      "constant": false,
      "inputs": [],
      "name": "withdraw",
      "outputs": [
        {
          "internalType": "bool",
          "name": "",
          "type": "bool"
        }
      ],
      "payable": true,
      "stateMutability": "payable",
      "type": "function"
    },
    {
      "constant": false,
      "inputs": [],
      "name": "transferToOwner",
      "outputs": [],
      "payable": true,
      "stateMutability": "payable",
      "type": "function"
    }
  ],
  "bytecode": "0x608060405234801561001057600080fd5b5060405161080e38038061080e8339818101604052604081101561003357600080fd5b8101908080519060200190929190805190602001909291905050508160018190555080600281905550336000806101000a81548173ffffffffffffffffffffffffffffffffffffffff021916908373ffffffffffffffffffffffffffffffffffffffff1602179055505050610761806100ad6000396000f3fe60806040526004361061007b5760003560e01c806378e979251161004e57806378e97925146100e15780638da5cb5b1461010c57806391f9015714610163578063d57bde79146101ba5761007b565b80631998aeef146100805780632d90ae941461008a5780633197cbb6146100945780633ccfd60b146100bf575b600080fd5b6100886101e5565b005b61009261047d565b005b3480156100a057600080fd5b506100a96105ab565b6040518082815260200191505060405180910390f35b6100c76105b1565b604051808215151515815260200191505060405180910390f35b3480156100ed57600080fd5b506100f66106d5565b6040518082815260200191505060405180910390f35b34801561011857600080fd5b506101216106db565b604051808273ffffffffffffffffffffffffffffffffffffffff1673ffffffffffffffffffffffffffffffffffffffff16815260200191505060405180910390f35b34801561016f57600080fd5b50610178610700565b604051808273ffffffffffffffffffffffffffffffffffffffff1673ffffffffffffffffffffffffffffffffffffffff16815260200191505060405180910390f35b3480156101c657600080fd5b506101cf610726565b6040518082815260200191505060405180910390f35b60025442111561025d576040517f08c379a00000000000000000000000000000000000000000000000000000000081526004018080602001828103825260128152602001807f41756374696f6e2068617320656e6465642e000000000000000000000000000081525060200191505060405180910390fd5b6001544210156102d5576040517f08c379a00000000000000000000000000000000000000000000000000000000081526004018080602001828103825260198152602001807f41756374696f6e206469646e2774207374617274207965742e0000000000000081525060200191505060405180910390fd5b600354341161034c576040517f08c379a00000000000000000000000000000000000000000000000000000000081526004018080602001828103825260168152602001807f5468657265206973206120686967686572206269642e0000000000000000000081525060200191505060405180910390fd5b6000600354146103c85760035460056000600460009054906101000a900473ffffffffffffffffffffffffffffffffffffffff1673ffffffffffffffffffffffffffffffffffffffff1673ffffffffffffffffffffffffffffffffffffffff168152602001908152602001600020600082825401925050819055505b33600460006101000a81548173ffffffffffffffffffffffffffffffffffffffff021916908373ffffffffffffffffffffffffffffffffffffffff160217905550346003819055507ff4757a49b326036464bec6fe419a4ae38c8a02ce3e68bf0809674f6aab8ad3003334604051808373ffffffffffffffffffffffffffffffffffffffff1673ffffffffffffffffffffffffffffffffffffffff1681526020018281526020019250505060405180910390a1565b6000809054906101000a900473ffffffffffffffffffffffffffffffffffffffff1673ffffffffffffffffffffffffffffffffffffffff163373ffffffffffffffffffffffffffffffffffffffff161461053f576040517f08c379a000000000000000000000000000000000000000000000000000000000815260040180806020018281038252601b8152602001807f416363657373207265737472696374656420746f206f776e65722e000000000081525060200191505060405180910390fd5b6000809054906101000a900473ffffffffffffffffffffffffffffffffffffffff1673ffffffffffffffffffffffffffffffffffffffff166108fc6003549081150290604051600060405180830381858888f193505050501580156105a8573d6000803e3d6000fd5b50565b60025481565b600080600560003373ffffffffffffffffffffffffffffffffffffffff1673ffffffffffffffffffffffffffffffffffffffff16815260200190815260200160002054905060008111156106cc576000600560003373ffffffffffffffffffffffffffffffffffffffff1673ffffffffffffffffffffffffffffffffffffffff168152602001908152602001600020819055503373ffffffffffffffffffffffffffffffffffffffff166108fc829081150290604051600060405180830381858888f193505050506106cb5780600560003373ffffffffffffffffffffffffffffffffffffffff1673ffffffffffffffffffffffffffffffffffffffff1681526020019081526020016000208190555060009150506106d2565b5b60019150505b90565b60015481565b6000809054906101000a900473ffffffffffffffffffffffffffffffffffffffff1681565b600460009054906101000a900473ffffffffffffffffffffffffffffffffffffffff1681565b6003548156fea265627a7a7231582098800bb62e556500239744cc4390b8aa510d254878fdfedce2642d6ad963c63164736f6c63430005100032",
  "source": "pragma solidity ^0.5.0;\n\ncontract Auction {\n    // the owner of the auction\n    address payable public owner;\n    // the start time of the auction\n    uint256 public startTime;\n    // the end time of the auction\n    uint256 public endTime;\n\n    // the current highest bid/bidder\n    uint256 public highestBid;\n    address public highestBidder;\n\n    // mapping between bidders and the amount of money they bid\n    mapping(address => uint256) amounts;\n\n    event HighestBidIncreased(address bidder, uint256 amount);\n\n    constructor(uint256 _startTime, uint256 _endTime) public {\n        startTime = _startTime;\n        endTime = _endTime;\n        owner = msg.sender;\n    }\n\n    modifier notEnded() {\n        require(now <= endTime, \"Auction has ended.\");\n        _;\n    }\n\n    modifier hasEnded() {\n        require(now > endTime, \"Auction hasn't ended.\");\n        _;\n    }\n\n    modifier hasStarted() {\n        require(now >= startTime, \"Auction didn't start yet.\");\n        _;\n    }\n\n    modifier isHighestBid() {\n        require(msg.value > highestBid, \"There is a higher bid.\");\n        _;\n    }\n\n    modifier notOwner() {\n        require(msg.sender != owner, \"The owner can't bid.\");\n        _;\n    }\n\n    modifier isOwner() {\n        require(msg.sender == owner, \"Access restricted to owner.\");\n        _;\n    }\n\n    function bid() public payable notEnded hasStarted isHighestBid { // notOwner\n        // if the highest bid has been overtaken, the previous highest bidder can withdraw all his money, including his highest bid \n        if (highestBid != 0) {\n            amounts[highestBidder] += highestBid;\n        }\n        highestBidder = msg.sender;\n        highestBid = msg.value;\n        emit HighestBidIncreased(msg.sender, msg.value);\n    }\n\n    function withdraw() public payable returns (bool) { // notOwner\n        // you can withdraw if you are not owner\n        // if you are the current highest bidder, you can not withdraw your highest bid (only the other ones)\n        uint256 amount = amounts[msg.sender];\n        if (amount > 0) {\n            amounts[msg.sender] = 0;\n\n            if (!msg.sender.send(amount)) {\n                // if the transaction fails, the amount is added back\n                amounts[msg.sender] = amount;\n                return false;\n            }\n        }\n        return true;\n    }\n\n    function transferToOwner() public payable isOwner { // pun la loc notEnded\n        // if the auction is done, transfer the money to owner\n        // can be called only by the owner\n        owner.transfer(highestBid);\n    }\n}",
  "sourcePath": "C:/Users/vladd/OneDrive/Desktop/Auction-System/contracts/Auction.sol",
  "compiler": {
    "name": "solc",
    "version": "0.5.16+commit.9c3226ce.Emscripten.clang"
  },
  "schemaVersion": "3.3.4",
  "updatedAt": "2021-04-21T11:31:18.381Z",
  "networkType": "ethereum",
  "devdoc": {
    "methods": {}
  },
  "userdoc": {
    "methods": {}
  }
}